:100000000C949E000C94C6000C94C6000C94C60080
:100010000C94C6000C94C6000C94C6000C94C60048
:100020000C94C6000C94C6000C94C6000C944208B4
:100030000C94C6000C94C6000C94C6000C94C60028
:100040000C94F8070C94C6000C94C6070C94A007F7
:100050000C94C6000C94C6000C94C6000C94C60008
:100060000C94FE080C94C60007634236B79BD8A7D1
:100070001A39685618AEBAAB558C1D3CB7CC5763CD
:10008000BD6DEDFD753EF6177231BF000000803F7B
:1000900008000000BE922449123EABAAAA2ABECD97
:1000A000CCCC4C3E00000080BEABAAAAAA3E000009
:1000B0000000BF000000803F000000000008417801
:1000C000D3BB4387D1133D190E3CC3BD4282AD2B38
:1000D0003E68EC8276BED98FE1A93E4C80EFFFBE30
:1000E00001C4FF7F3F000000000000000008000284
:1000F00001000003040700000000000000000000F1
:100100000000250028002B0000000000240027002C
:100110002A00040404040404040402020202020289
:1001200003030303030301020408102040800102BB
:10013000040810200102040810201D0A11241FBE0B
:10014000CFEFD8E0DEBFCDBF11E0A0E0B1E0E0E648
:10015000F6E202C005900D92A837B107D9F723E067
:10016000A8E7B1E001C01D92A837B207E1F710E09F
:10017000CEE9D0E004C02197FE010E942813CD39BA
:10018000D107C9F70E94AC0A0C942E130C940000FE
:10019000982F2091430281E0213208F043C08091E2
:1001A0001F028111FCCF8091420232E030931F0286
:1001B00090931E029FEF90931D0210921C022093B9
:1001C0001B02A2E2B2E0EBEFF1E090E0291331C0B4
:1001D0001092FA019091FA01880F892B8093FA010D
:1001E0008091F901813049F51092F9018091FA016D
:1001F0008093BB008091BC0083FDF8CF85EC809399
:10020000BC0080911F028230E1F380911D028F3F7C
:10021000B1F080911D028032A1F080911D028033E7
:1002200091F084E010922102109243021092200279
:1002300008953D9131939F5FC9CF85EEE0CF80E077
:10024000F1CF82E0EFCF83E0EDCF8091D7019091A5
:10025000D801891B990B08958F929F92AF92BF92FC
:10026000FF920F931F93CF93DF93F09075032BE0D2
:100270002F1508F44CC02091770308E512E0021B0B
:10028000110927FD1395000F111F000F111F209159
:100290007603C8E8D0E0C21BD10927FDD395CC0F67
:1002A000DD1FCC0FDD1F4E010D2E000CAA08BB0870
:1002B0009801012E000C440B550B281939094A09E5
:1002C0005B09DC010E94220F24EB30E040E050E0AB
:1002D0000E94F80E820E931EA41EB51E8C169D065B
:1002E0002CF0E801801691060CF4E4012297CC0F63
:1002F000DD1F2FB7F8948F2D90E0FC01EE0FFF1F4C
:10030000E80FF91FE351FD4FD283C1832FBFDF9167
:10031000CF911F910F91FF90BF90AF909F908F90C2
:10032000089508950895AF92BF92CF92DF92EF9211
:10033000FF920F931F93CF93DF936C017B018B018F
:10034000040F151FEB015E01AE18BF08C017D107DF
:1003500059F06991D601ED91FC910190F081E02D69
:10036000C6010995892B79F7C501DF91CF911F91BE
:100370000F91FF90EF90DF90CF90BF90AF900895D6
:10038000FC01538D448D252F30E0842F90E0821B9B
:10039000930B541710F0CF96089501970895FC0120
:1003A000918D828D981761F0A28DAE0FBF2FB11D78
:1003B0005D968C91928D9F5F9F73928F90E00895D0
:1003C0008FEF9FEF0895FC01918D828D981731F08A
:1003D000828DE80FF11D858D90E008958FEF9FEFDE
:1003E0000895FC01918D228D892F90E0805C9F4FB4
:1003F000821B91098F739927089584E492E00E94EB
:10040000F10121E0892B09F420E0822F089580E09A
:1004100090E0892B29F00E94FD0181110C940000CD
:100420000895FC01A48DA80FB92FB11DA35ABF4F89
:100430002C91848D90E001968F739927848FA689E3
:10044000B7892C93A089B1898C91837080648C9337
:10045000938D848D981306C00288F389E02D8081E6
:100460008F7D80830895EF92FF920F931F93CF9318
:10047000DF93EC0181E0888F9B8D8C8D98131AC0DF
:10048000E889F989808185FF15C09FB7F894EE89C6
:10049000FF896083E889F989808183708064808323
:1004A0009FBF81E090E0DF91CF911F910F91FF906E
:1004B000EF900895F62E0B8D10E00F5F1F4F0F7316
:1004C0001127E02E8C8D8E110CC00FB607FCFACFD1
:1004D000E889F989808185FFF5CFCE010E9411025C
:1004E000F1CFEB8DEC0FFD2FF11DE35AFF4FF082A2
:1004F0009FB7F8940B8FEA89FB8980818062CFCF08
:10050000CF93DF93EC01888D8823B9F0AA89BB894A
:10051000E889F9898C9185FD03C0808186FD0DC035
:100520000FB607FCF7CF8C9185FFF2CF808185FF56
:10053000EDCFCE010E941102E9CFDF91CF91089556
:1005400090E0FC01E651FF4F2491FC01EA5DFE4F73
:100550003491FC01EE5EFE4FE491EE23C9F02223BC
:1005600039F0233001F1A8F4213019F1223029F1BA
:10057000F0E0EE0FFF1FE250FF4FA591B4918FB74F
:10058000F894EC91611126C030953E233C938FBFC7
:1005900008952730A9F02830C9F0243049F7809118
:1005A00080008F7D03C0809180008F7780938000D2
:1005B000DFCF84B58F7784BDDBCF84B58F7DFBCF54
:1005C0008091B0008F778093B000D2CF8091B0003F
:1005D0008F7DF9CF3E2BDACF3FB7F8948091C101E0
:1005E0009091C201A091C301B091C40126B5A89B0E
:1005F00005C02F3F19F00196A11DB11D3FBFBA2FB5
:10060000A92F982F8827BC01CD01620F711D811D74
:10061000911D42E0660F771F881F991F4A95D1F7F9
:1006200008958F929F92AF92BF92CF92DF92EF92F6
:10063000FF924B015C010E94EC026B017C010E9465
:10064000EC026C197D098E099F09683E7340810593
:100650009105A8F321E0821A9108A108B10888EE5B
:10066000C80E83E0D81EE11CF11C81149104A10482
:10067000B10429F7FF90EF90DF90CF90BF90AF903B
:100680009F908F90089585ED8093BC008091BC0071
:1006900084FDFCCF10921F02089520919801260F2F
:1006A0003327331F21323105ECF420911F02FC0166
:1006B00090E080E0243069F082E00895A0919801F4
:1006C0002191AC0148585E4FA40FB52FB11D2C935A
:1006D0000196861798F380919801680F60939801AE
:1006E00080E0089581E008950895E091D801809117
:1006F000D701E81730F4F0E0E752FE4F808190E038
:1007000008958FEF9FEF08959091D8018091D701C0
:100710002FEF3FEF981748F4E92FF0E0E752FE4F34
:10072000208130E09F5F9093D801C9010895CF9256
:10073000DF92EF92FF920F931F93CF93DF937C0191
:10074000CB018A0120912002222389F0EB016B0169
:10075000C40ED51ECC15DD0569F06991D701ED9168
:10076000FC910190F081E02DC7010995F3CF642F32
:100770000E944D03C801DF91CF911F910F91FF900F
:10078000EF90DF90CF90089521E02093200227E79B
:1007900020934202109221021092430242E050E064
:1007A000BC0181EE92E00E94970381E00E94C800A4
:1007B000982F8093740381E0911180E00895CF9386
:1007C000DF931F92CDB7DEB76983209120022223E9
:1007D000F9F020914302203258F021E030E0FC0192
:1007E0003383228390E080E00F90DF91CF910895D2
:1007F00080912102E82FF0E0EE5DFD4F998190831A
:100800008F5F809321028093430281E090E0ECCFE0
:1008100061E0CE0101960E944D03F7CF90E080E0A9
:100820000895EF92FF920F931F93CF93DF937C0174
:10083000C62F81E08093200287E7809342021092C6
:10084000210210924302F701608181EE92E00E9442
:10085000DF0381E00E94C80080937403811162C0AD
:100860002C2F0C2E000C330B80911F028111FCCF1A
:100870009C2F81E080931F0280931E024FEF4093D4
:100880001D0210921C024C0F40931B028093FA0130
:100890008091FA018E6E8093FA018091F901813086
:1008A000D9F51092F9018091FA018093BB008091F3
:1008B000BC0083FDF8CF85EC8093BC0080911F02C3
:1008C0008130E1F380911C028C1710F490911C028E
:1008D000ABEFB1E0E9EDF1E080E089131FC01092C9
:1008E000D8018093D70190E028173907E9F7DE2D6A
:1008F000870181EE92E00E948403F80181938F01C9
:100900008E2F8D1B8C17ACF381E0DF91CF911F915F
:100910000F91FF90EF90089585EECECF4D914193CA
:100920008F5FDBCF80E0F1CF0F931F93CF93DF93E7
:1009300000D0CDB7DEB78B01898362E0CE0101968E
:100940000E941104882381F089819A819827892740
:100950009827F8019183808381E00F900F90DF91B9
:10096000CF911F910F910895F80111821082F5CF58
:100970000F931F93CF93DF9300D0CDB7DEB78B01DA
:10098000898362E0CE0101960E941104882381F0E0
:1009900089819A81982789279827F80191838083F4
:1009A00081E00F900F90DF91CF911F910F910895EB
:1009B000F80111821082F5CFFC0101900020E9F7C7
:1009C0003197AF01481B590BBC0184E492E00C94B1
:1009D00093018F929F92AF92BF920F931F93CF93E9
:1009E000DF93CDB7DEB7A1970FB6F894DEBF0FBE89
:1009F000CDBF19A2423008F44AE08E010F5D1F4FAF
:100A0000842E912CB12CA12CA50194010E942A0FB7
:100A1000E62FB901CA01EA30F4F4E05DD801EE93A3
:100A20008D01232B242B252B79F790E080E0109764
:100A300019F0CD010E94DC04A1960FB6F894DEBF38
:100A40000FBECDBFDF91CF911F910F91BF90AF909F
:100A50009F908F900895E95CE1CF4F925F926F92E3
:100A60007F928F929F92AF92BF92CF92DF92EF923E
:100A7000FF920F931F93CF936B017C01742EAC01F7
:100A80009B010E94E211882399F085E291E0CF91C9
:100A90001F910F91FF90EF90DF90CF90BF90AF909C
:100AA0009F908F907F906F905F904F900C94DC049C
:100AB00046015701E894B7F82FEF3FEF4FE75FE7A4
:100AC000C501B4010E94E21181110DC02FEF3FEF6B
:100AD0004FE75FE7C501B4010E94C80F18161CF468
:100AE00089E291E0D4CF2FEF3FEF4FE75FE4C701FA
:100AF000B6010E94201118161CF48DE291E0C7CFB8
:100B00002FEF3FEF4FE75FECC701B6010E94C80F20
:100B100087FDF3CF20E030E0A901C701B6010E94B4
:100B2000C80F10E000E087FF0AC06DE284E492E0A5
:100B30000E9433028C01F7FAF094F7F8F094C0E0C9
:100B400060E070E080E09FE37C1641F020E030E060
:100B500040E251E40E94CD0FCF5FF6CFA70196018E
:100B60000E945C0F2B013C010E943F104B015C0175
:100B70004AE00E94E9047C01E00EF11ECC23C1F1A1
:100B8000C501B4010E946E109B01AC01C301B2010A
:100B90000E945B0F4B015C016EE284E492E00E94D4
:100BA0003302E80EF91EC15018F120E030E040E2B7
:100BB00051E4C501B4010E9425112B013C010E94A2
:100BC0003F104B01B12CA12C4AE0C501B4010E9499
:100BD000E904E80EF91EC501B4010E946E109B01E4
:100BE000AC01C301B2010E945B0F4B015C01DBCF82
:100BF000C701CF911F910F91FF90EF90DF90CF90A1
:100C0000BF90AF909F908F907F906F905F904F902C
:100C100008953F924F925F926F927F928F929F9230
:100C2000AF92BF92CF92DF92EF92FF920F931F93FA
:100C3000CF93DF93CDB7DEB72B970FB6F894DEBF17
:100C40000FBECDBF14EF19838EE28A83CE010196C9
:100C50000E94C403882309F472C165E070E080E05B
:100C600090E00E94110306EF098362E0CE01019635
:100C70000E941104882309F462C179803A80C090EF
:100C80004003D0904103E0904203F09043038090F2
:100C9000440390904503A0904603B0904703809191
:100CA000480390914903A0914A03B0914B038C8370
:100CB0009D83AE83BF8380914C0390914D03A0919F
:100CC0004E03B0914F0388879987AA87BB87198302
:100CD0001A83CE0101960E94C403882309F42FC110
:100CE0006AE170E080E090E00E941103098363E014
:100CF000CE0101960E941104882309F420C1672DBA
:100D000070E090E080E00E94701020E030E040E869
:100D100053E40E9425112B013C01632D70E090E00B
:100D200080E00E9470109B01AC01C301B2010E94DF
:100D30005C0FA50194010E945B0FA70196010E9420
:100D400025116B017C01288539854A855B850E94C8
:100D50005C0F9B01AC016C817D818E819F810E9423
:100D6000CD0FA70196010E945C0F20E030E048EC17
:100D700051E40E945B0F6B017C01AC019B010E945E
:100D800025114B015C01698170E090E080E00E94D8
:100D9000701020E030E040E853E40E9425112B0160
:100DA0003C016A8170E090E080E00E9470109B013D
:100DB000AC01C301B2010E945C0F2B013C016B81AD
:100DC00070E090E080E00E94701020E030E040E8A9
:100DD0005BE30E9425119B01AC01C301B2010E949B
:100DE0005C0F6C837D838E839F83209158033091A9
:100DF000590340915A0350915B03C501B4010E940D
:100E000025112B013C012091540330915503409151
:100E1000560350915703C701B6010E9425119B014B
:100E2000AC01C301B2010E945C0F209150033091CC
:100E3000510340915203509153030E945C0F9B0158
:100E4000AC016C817D818E819F810E945B0F2B01A3
:100E50003C012091640330916503409166035091F9
:100E60006703C501B4010E9425114B015C0120916B
:100E70006003309161034091620350916303C701A5
:100E8000B6010E9425119B01AC01C501B4010E946D
:100E90005C0F20915C0330915D0340915E035091A3
:100EA0005F030E945C0F9B01AC01C301B2010E9471
:100EB000CD0F6B017C01AC019B010E94251120919B
:100EC00070033091710340917203509173030E943B
:100ED00025114B015C0120916C0330916D03409111
:100EE0006E0350916F03C701B6010E9425119B014B
:100EF000AC01C501B4010E945C0F209168033091E0
:100F0000690340916A0350916B030E945C0F2B961A
:100F10000FB6F894DEBF0FBECDBFDF91CF911F910A
:100F20000F91FF90EF90DF90CF90BF90AF909F9088
:100F30008F907F906F905F904F903F900895E7CF94
:100F40001F920F920FB60F9211242F933F934F933E
:100F50005F936F937F938F939F93AF93BF93EF9321
:100F6000FF9384E492E00E941102FF91EF91BF9100
:100F7000AF919F918F917F916F915F914F913F9131
:100F80002F910F900FBE0F901F9018951F920F92E8
:100F90000FB60F9211242F938F939F93EF93FF938C
:100FA000E0915402F09155028081E0915A02F09153
:100FB0005B0282FD1BC0908180915D028F5F8F7309
:100FC00020915E02821741F0E0915D02F0E0EC5B5F
:100FD000FD4F958F80935D02FF91EF919F918F91CF
:100FE0002F910F900FBE0F901F9018958081F4CF16
:100FF0001F920F920FB60F9211242F933F938F934E
:101000009F93AF93BF938091BD019091BE01A0913A
:10101000BF01B091C0013091BC0123E0230F2D37F7
:1010200058F50196A11DB11D2093BC018093BD010F
:101030009093BE01A093BF01B093C0018091C10104
:101040009091C201A091C301B091C4010196A11D6C
:10105000B11D8093C1019093C201A093C301B093CD
:10106000C401BF91AF919F918F913F912F910F90AC
:101070000FBE0F901F90189526E8230F0296A11D12
:10108000B11DD2CF1F920F920FB60F9211242F9342
:101090003F934F935F936F937F938F939F93AF9300
:1010A000BF93CF93DF93EF93FF938091BB01C091E8
:1010B0001103D0E087FF24C01092850010928400B5
:1010C0008091BB018F5F8093BB018091BB01082E93
:1010D000000C990B8C179D0724F48091BB018C3078
:1010E000C4F18091840090918500049680349C49DD
:1010F00008F47AC08091840090918500049676C0AF
:101100008091BB01082E000C990B8C179D07C4F62B
:10111000E091BB018E2FEE0F990BFC01EE0FFF1F2C
:10112000E80FF91FE351FD4F808186FFC9CFE091A1
:10113000BB018E2FEE0F990BFC01EE0FFF1FE80F86
:10114000F91FE351FD4F808160E08F730E94A00280
:10115000B7CF2091840030918500E091BB018E2FA4
:10116000EE0F990BFC01EE0FFF1FE80FF91FE35183
:10117000FD4F81819281820F931F9093890080930C
:101180008800E091BB018E2FEE0F990BFC01EE0F52
:10119000FF1FE80FF91FE351FD4F808186FF11C04B
:1011A000E091BB018E2FEE0F990BFC01EE0FFF1F9C
:1011B000E80FF91FE351FD4F808161E08F730E94BA
:1011C000A002FF91EF91DF91CF91BF91AF919F91DD
:1011D0008F917F916F915F914F913F912F910F90E0
:1011E0000FBE0F901F90189580E49CE990938900A2
:1011F000809388008FEF8093BB01E3CF1F920F9203
:101200000FB60F9211242F933F934F935F936F93D9
:101210007F938F939F93AF93BF93EF93FF938091AF
:10122000B900887F803609F44AC0F0F5883209F4A5
:10123000A7C018F5803109F49BC0B8F4882309F4DD
:10124000F9C0883009F494C0FF91EF91BF91AF913C
:101250009F918F917F916F915F914F913F912F91CE
:101260000F900FBE0F901F901895883109F488C019
:10127000803251F780931D0214C0803409F49DC060
:1012800040F48033B9F38833F9F680931D0285EC7E
:10129000B0C0803509F485C0883509F496C088341B
:1012A00099F60E944303D0CF883909F48CC038F5F1
:1012B000883729F050F4883611F0803729F683E01A
:1012C00080931F021092BA0157C0883809F47BC07E
:1012D000803919F0803809F0B7CF8091BA01803297
:1012E00008F071C0E091BA0181E08E0F8093BA01DD
:1012F0008091BB00F0E0E656FE4F80833DC0803B0E
:1013000039F0E0F4803A09F479C0883A09F09CCFCA
:1013100084E080931F021092990110929801E0914D
:10132000C701F091C80109958091980181110FC002
:1013300081E0809398011092780109C0803C09F403
:10134000A6CF883C09F4A3CF883B09F07DCFE0917C
:10135000990181E08E0F80939901F0E0E858FE4FEB
:1013600080818093BB00909199018091980129C060
:101370008091FA018093BB0085EC8093BC0064CF20
:1013800090911C0280911B02981758F5E0911C0265
:1013900081E08E0F80931C02F0E0E550FE4F8081CB
:1013A000E9CFE0911C0281E08E0F80931C028091B6
:1013B000BB00F0E0E550FE4F808390911C028091CD
:1013C0001B029817C8F285E8D8CFE0911C0281E093
:1013D0008E0F80931C028091BB00F0E0E550FE4F21
:1013E000808380911E0281115CCF81E08093F9019E
:1013F00084EA8093BC0010921F0226CF85EC809374
:10140000BC0010921F028091BA01803230F4E0914A
:10141000BA01F0E0E656FE4F10826091BA0170E02A
:10142000E091C501F091C6018AE991E00995109219
:10143000BA010ACF10921D0234CF109247021092C7
:10144000460288EE93E0A0E0B0E0809348029093DB
:101450004902A0934A02B0934B0225E031E0309359
:1014600045022093440225EC30E030935102209352
:10147000500224EC30E0309353022093520220ECCF
:1014800030E0309355022093540221EC30E0309349
:1014900057022093560222EC30E0309359022093F9
:1014A000580226EC30E030935B0220935A021092EF
:1014B0005D0210925E0210925F0210926002109222
:1014C000E4021092E3028093E5029093E602A09377
:1014D000E702B093E80287E191E09093E202809303
:1014E000E102809111038C3098F591E0980F909370
:1014F00011038093750390E0FC01EE0FFF1FE80FCE
:10150000F91FE351FD4F88EB9BE09283818380E0DC
:1015100090E0A0E8BFE38093120390931303A0939D
:101520001403B09315038093160390931703A093AD
:101530001803B09319038AE097EDA3E2BCE380930C
:101540001A0390931B03A0931C03B0931D030895EB
:101550008FEF80937503DBCFCF93DF9300D000D064
:10156000CDB7DEB7789484B5826084BD84B58160E0
:1015700084BD85B5826085BD85B5816085BD80915E
:101580006E00816080936E001092810080918100D6
:1015900082608093810080918100816080938100CE
:1015A000809180008160809380008091B100846090
:1015B0008093B1008091B00081608093B0008091F1
:1015C0007A00846080937A0080917A0082608093B0
:1015D0007A0080917A00816080937A0080917A000D
:1015E000806880937A001092C100E0915402F091DB
:1015F000550282E08083E0915002F0915102108206
:10160000E0915202F091530280E1808310925C02DB
:10161000E0915802F091590286E08083E0915602F1
:10162000F0915702808180618083E0915602F091B1
:101630005702808188608083E0915602F0915702C2
:10164000808180688083E0915602F091570280810A
:101650008F7D808360ED77E080E090E00E94110351
:10166000809175038C3008F068C0EFE2F1E02491BE
:10167000EBE1F1E08491882399F090E0880F991FC5
:10168000FC01E85FFE4FA591B491FC01E250FF4FD1
:10169000859194918FB7F894EC91E22BEC938FBFE6
:1016A00080917503282F30E0F901EE0FFF1FE20F44
:1016B000F31FE351FD4F9081907C996090831092CD
:1016C0007603109277032CE0622F0E941C13829FF6
:1016D000B001112430E020E0AB01420F531FFA01AA
:1016E000EE0FFF1FE40FF51FE351FD4F908196FDB4
:1016F00016C02F5F3F4F2C30310571F781110FC09D
:101700001092800082E080938100109285001092F8
:101710008400B19A80916F00826080936F00E091A5
:1017200075038E2F90E0FC01EE0FFF1FE80FF91FED
:10173000E351FD4F80818064808384EB90E00E94C0
:101740002C011092D8011092D70110922102109210
:10175000430210921F0281E080931E021092F90151
:1017600061E082E10E94A00261E083E10E94A002A8
:101770008091B9008E7F8093B9008091B9008D7FF0
:101780008093B90088E48093B80085E48093BC001E
:1017900081E991E09093C8018093C70182E991E0CB
:1017A0009093C6018093C5016AE273E08AEA0E94C1
:1017B000B804882309F402C36CE273E08CEA0E9447
:1017C000B804882309F4FAC26EE273E08EEA0E943C
:1017D000B804882309F4F2C26AE373E080EB0E9444
:1017E0009404882309F4EAC26CE373E082EB0E945C
:1017F0009404882309F4E2C26EE373E084EB0E9450
:101800009404882309F4DAC260E373E086EB0E9453
:10181000B804882309F4D2C262E373E088EB0E9423
:10182000B804882309F4CAC264E373E08AEB0E9417
:10183000B804882309F4C2C266E373E08CEB0E940B
:10184000B804882309F4BAC268E373E08EEB0E94FF
:10185000B804882309F4B2C260912E0370912F035B
:10186000072E000C880B990B0E94701020E030E0CE
:1018700040EA5BE30E9425112B013C0160913A0391
:1018800070913B0390E080E00E946E102FE632E101
:1018900043E053E30E9425116B017C01609130030A
:1018A00070913103072E000C880B990B0E94701069
:1018B00020E030E048EC57E30E9425114B015C0129
:1018C00060913C0370913D0390E080E00E946E10B7
:1018D0002DEC3CEC4CE454E30E9425116093400352
:1018E00070934103809342039093430360913E03BE
:1018F00070913F0390E080E00E946E10609344037B
:101900007093450380934603909347036091360399
:1019100070913703072E000C880B990B0E947010F2
:101920002AE037ED43EA5DE30E9425116093480306
:101930007093490380934A0390934B03609138035B
:1019400070913903072E000C880B990B0E947010C0
:1019500020E030E040E253E40E94CD0F60934C035E
:1019600070934D0380934E0390934F0360912A032D
:1019700070912B03072E000C880B990B0E9470109E
:1019800060935003709351038093520390935303D9
:1019900060912C0370912D03072E000C880B990B7E
:1019A0000E94701020E030E040EA5CE30E942511C4
:1019B0006093540370935503809356039093570399
:1019C0006091320370913303072E000C880B990B42
:1019D0000E94701020E030E048E45AE30E94251194
:1019E000609358037093590380935A0390935B0359
:1019F00020E030E040E057E4C701B6010E94251125
:101A000060935C0370935D0380935E0390935F0328
:101A1000A7019601C301B2010E94251160936003E2
:101A2000709361038093620390936303A501940113
:101A3000C701B6010E94251160936403709365038A
:101A400080936603909367038CEE91E5A7E1B0E481
:101A50008093680390936903A0936A03B0936B0328
:101A600080E394E3AEE7BFE380936C0390936D0350
:101A7000A0936E03B0936F0380E097E5A4E9B6E30B
:101A80008093700390937103A0937203B0937303D8
:101A90000E9409066093D3017093D4018093D5010D
:101AA0009093D60168EE73E080E090E00E9411030D
:101AB00080910001882309F474C10E9409062091D5
:101AC000D3013091D4014091D5015091D6010E94AB
:101AD000CD0F2EEA3CED42E45EE30E9492116B01D1
:101AE0007C018091160390911703A0911803B09187
:101AF000190389839A83AB83BC83209112033091AD
:101B000013034091140350911503BC01CD010E94B1
:101B10005C0F9B01AC0169817A818B819C810E9461
:101B2000CD0F4B015C018092260390922703A09277
:101B30002803B09229034090220350902303609021
:101B4000240370902503A701960160E070E080E80F
:101B50009FE30E945B0F20E03AE24DE257E40E94CF
:101B60002511A30192010E945B0FA50194010E941F
:101B70002511A30192010E945C0F6B017C01C092B0
:101B80001E03D0921F03E0922003F0922103AC01C8
:101B90009B01C301B2010E945B0F9F7720911A0342
:101BA00030911B0340911C0350911D030E9425118D
:101BB0002B013C01A501940160E070E080E89FE307
:101BC0000E945B0F29813A814B815C810E94251123
:101BD0009B01AC01C301B2010E945C0F609316032C
:101BE000709317038093180390931903C0922203F4
:101BF000D0922303E0922403F09225032091CF0199
:101C00003091D0014091D1015091D201C701B6016C
:101C10000E945B0F2B013C012091CB013091CC0144
:101C20004091CD015091CE010E945B0F69837A8370
:101C30008B839C8389E491E00E94DC0442E0C7012D
:101C4000B6010E942D0583E591E00E94DC0486E543
:101C500091E00E94DC0488E591E00E94DC0442E00F
:101C6000C301B2010E942D0582E691E00E94DC04CE
:101C700042E069817A818B819C810E942D0587E6F3
:101C800091E00E94DC048FE691E00E94DC048090E9
:101C9000C9019090CA01092C000CAA08BB084AE0AF
:101CA000C501B401B7FE0DC06DE284E492E00E946C
:101CB000330266277727CB01681979098A099B09BE
:101CC0004AE00E94E90486E491E00E94DC0420E0FE
:101CD00030E048EC52E4C701B6010E94C80F181664
:101CE0000CF481C020E030E048EC52E46091CF0178
:101CF0007091D0018091D1019091D2010E94C80FC2
:101D000018160CF470C020E030E040E251ECC30142
:101D1000B2010E94C80F18160CF465C020E030E034
:101D200040E251E469817A818B819C810E9420117B
:101D300087FD59C08091C9019091CA010196909385
:101D4000CA018093C9010397B4F090E080E00E943B
:101D50002C0160ED77E080E090E00E94110384EBBD
:101D600090E00E942C0168EE73E080E090E00E9419
:101D7000110310920001C092CF01D092D001E092E5
:101D8000D101F092D2014092CB015092CC016092ED
:101D9000CD017092CE0168EE73E080E090E00E9489
:101DA0001103A0E0B0E0AB2B09F482CE0E94FD014C
:101DB000882309F47DCE0E9400007ACE81E391E071
:101DC0000E94DC0486E491E00E94DC0468EE73E08B
:101DD00080E090E00E94110368EE73E080E090E004
:101DE0000E941103FFCF1092CA011092C901C3CF04
:101DF000052E97FB1EF400940E940F0F57FD07D08D
:101E00000E942A0F07FC03D04EF40C940F0F50953C
:101E10004095309521953F4F4F4F5F4F08959095D6
:101E20008095709561957F4F8F4F9F4F08950E94C9
:101E30004C0FA59F900DB49F900DA49F800D911DF8
:101E400011240895B7FF0C94170F0E94170F821BDF
:101E5000930B0895A1E21A2EAA1BBB1BFD010DC016
:101E6000AA1FBB1FEE1FFF1FA217B307E407F5074A
:101E700020F0A21BB30BE40BF50B661F771F881F26
:101E8000991F1A9469F760957095809590959B01BC
:101E9000AC01BD01CF010895A29FB001B39FC00165
:101EA000A39F700D811D1124911DB29F700D811D86
:101EB0001124911D08955058BB27AA270E94730F23
:101EC0000C94E6100E94D81038F00E94DF1020F029
:101ED00039F49F3F19F426F40C94D5100EF4E095D4
:101EE000E7FB0C94CF10E92F0E94F71058F3BA17B4
:101EF000620773078407950720F079F4A6F50C9420
:101F000019110EF4E0950B2EBA2FA02D0B01B9017B
:101F100090010C01CA01A0011124FF27591B99F05F
:101F2000593F50F4503E68F11A16F040A22F232F6B
:101F3000342F4427585FF3CF469537952795A795BB
:101F4000F0405395C9F77EF41F16BA0B620B730B62
:101F5000840BBAF09150A1F0FF0FBB1F661F771FD3
:101F6000881FC2F70EC0BA0F621F731F841F48F488
:101F7000879577956795B795F7959E3F08F0B0CF11
:101F80009395880F08F09927EE0F979587950895F8
:101F90000E94AB1008F481E008950E94E10F0C94B8
:101FA000E6100E94DF1058F00E94D81040F029F48B
:101FB0005F3F29F00C94CF1051110C941A110C941E
:101FC000D5100E94F71068F39923B1F3552391F3CC
:101FD000951B550BBB27AA2762177307840738F098
:101FE0009F5F5F4F220F331F441FAA1FA9F335D0F5
:101FF0000E2E3AF0E0E832D091505040E695001CA9
:10200000CAF72BD0FE2F29D0660F771F881FBB1F62
:10201000261737074807AB07B0E809F0BB0B802D40
:10202000BF01FF2793585F4F3AF09E3F510578F06C
:102030000C94CF100C941A115F3FE4F3983ED4F344
:10204000869577956795B795F7959F5FC9F7880F40
:10205000911D9695879597F90895E1E0660F771F92
:10206000881FBB1F621773078407BA0720F0621B23
:10207000730B840BBA0BEE1F88F7E09508950E944E
:10208000FF1088F09F5798F0B92F9927B751B0F0FB
:10209000E1F0660F771F881F991F1AF0BA95C9F7EC
:1020A00014C0B13091F00E941911B1E008950C9460
:1020B0001911672F782F8827B85F39F0B93FCCF313
:1020C000869577956795B395D9F73EF49095809569
:1020D000709561957F4F8F4F9F4F0895E89409C089
:1020E00097FB3EF490958095709561957F4F8F4F4B
:1020F0009F4F9923A9F0F92F96E9BB279395F69561
:10210000879577956795B795F111F8CFFAF4BB0FDE
:1021100011F460FF1BC06F5F7F4F8F4F9F4F16C042
:10212000882311F096E911C0772321F09EE8872FCC
:10213000762F05C0662371F096E8862F70E060E088
:102140002AF09A95660F771F881FDAF7880F969501
:10215000879597F90895990F0008550FAA0BE0E8A5
:10216000FEEF16161706E807F907C0F01216130659
:10217000E407F50798F0621B730B840B950B39F499
:102180000A2661F0232B242B252B21F408950A26FF
:1021900009F4A140A6958FEF811D811D089597F93F
:1021A0009F6780E870E060E008959FEF80EC0895FD
:1021B00000240A9416161706180609060895002426
:1021C0000A9412161306140605060895092E0394A0
:1021D000000C11F4882352F0BB0F40F4BF2B11F414
:1021E00060FF04C06F5F7F4F8F4F9F4F089557FD73
:1021F0009058440F551F59F05F3F71F04795880F75
:1022000097FB991F61F09F3F79F08795089512160B
:1022100013061406551FF2CF4695F1DF08C01616B7
:1022200017061806991FF1CF869571056105089468
:102230000895E894BB2766277727CB0197F908957F
:102240000E94AB1008F48FEF08950E9438110C948F
:10225000E6100E94D81038F00E94DF1020F095237D
:1022600011F00C94CF100C94D51011240C941A1169
:102270000E94F71070F3959FC1F3950F50E0551F22
:10228000629FF001729FBB27F00DB11D639FAA27CB
:10229000F00DB11DAA1F649F6627B00DA11D661F1A
:1022A000829F2227B00DA11D621F739FB00DA11D3B
:1022B000621F839FA00D611D221F749F3327A00DF5
:1022C000611D231F849F600D211D822F762F6A2F91
:1022D00011249F5750409AF0F1F088234AF0EE0FF6
:1022E000FF1FBB1F661F771F881F91505040A9F723
:1022F0009E3F510580F00C94CF100C941A115F3F53
:10230000E4F3983ED4F3869577956795B795F7955E
:10231000E7959F5FC1F7FE2B880F911D96958795D6
:1023200097F90895FA01EE0FFF1F30962105310548
:10233000A1F16115710561F48038BFE39B0749F194
:1023400068949038810561F08038BFEF9B0741F0B9
:1023500099234AF5FF3FE1053105210519F1E8947C
:102360000894E795D901AA2329F4AB2FBE2FF85F73
:10237000D0F310C0FF5F70F4A695E0F7F73950F086
:1023800019F0FF3A38F49F779F930DD00F9007FC18
:102390009058089546F00C94D51060E070E080E805
:1023A0009FE308954FE79F775F934F933F932F935A
:1023B0000E9492122F913F914F915F910E9425119F
:1023C0000C94EF110E94AB10880B990B089529F41F
:1023D00016F00C94CF100C9419110C94D5100E9487
:1023E000FF10A8F39638A0F707F80F92E8942BE3B4
:1023F0003AEA48EB5FE70E943B110F920F920F926F
:102400004DB75EB70F920E94DA12E8E6F0E00E9444
:1024100021124F915F91EF91FF91E595EE1FFF1F04
:1024200049F0FE57E0684427EE0F441FFA95E1F7A4
:102430004195550B0E9454120F9007FE0C944812C0
:102440000895DF93CF931F930F93FF92EF92DF9244
:102450007B018C01689406C0DA2EEF010E943811CE
:10246000FE01E894A5912591359145915591A6F3EA
:10247000EF010E94730FFE019701A801DA9469F73A
:10248000DF90EF90FF900F911F91CF91DF91089512
:102490009B01AC0160E070E080E89FE30C94CD0FFD
:1024A0000C94CF100C940E130E94FF10D8F39923B4
:1024B000C9F3940F511DA3F39150504094F059F07B
:1024C000882332F0660F771F881F91505040C1F764
:1024D0009E3F51052CF7880F911D9695879597F98A
:1024E00008955F3FACF0983E9CF0BB2786957795AA
:1024F0006795B79508F4B1609395C1F7BB0F58F78E
:1025000011F460FFE8CF6F5F7F4F8F4F9F4FE3CF96
:102510000C941A1116F00C940E130C94D5106894A8
:102520000C94CF100E94FF10A8F39923C1F3AEF3CF
:10253000DF93CF931F930F93FF92C92FDD2788233B
:102540002AF02197660F771F881FDAF720E030E026
:1025500040E85FEB9FE3883920F0803E38F0219619
:102560008F770E945C0FE0E9F0E004C00E945C0FEE
:10257000EDEBF0E00E9421128B01BE01EC01FB2E7D
:102580006F5771097595771F880B990B0E94701012
:1025900028E132E741E35FE30E943811AF2D980153
:1025A000AE01FF900F911F91CF91DF910E94730FA9
:1025B0000C94E610FA01DC01AA0FBB1F9B01AC01D1
:1025C000BF5728F4222733274427507820C0B7511B
:1025D00090F4AB2F0024469537952795011CA395C1
:1025E000D2F3002071F0220F331F441FB395DAF3AA
:1025F0000ED00C945B0F61307105A0E88A07B946D4
:1026000030F49B01AC0166277727882790783096B5
:1026100021F0208331834283538308959F3F31F01B
:10262000915020F4879577956795B795880F911D00
:102630009695879597F90895991B79E004C0991F9D
:10264000961708F0961B881F7A95C9F7809508950C
:10265000EE0FFF1F0590F491E02D0994F894FFCF41
:10266000010000000033029301C0018002F101CF9C
:1026700001E30100000000DF0397030E047403254B
:1026800001840375036E616E00696E66006F766685
:10269000004572726F722066696E64696E6720739E
:1026A000656E736F72000D0A00416C746974756415
:1026B000652000206D002C0056656C6F636974798D
:1026C0002000206D2F7300206D2F735E3220004399
:0826D0006F756E743A200000E2
:00000001FF
